:020000040000fa
:080000000002040000000000f2
:020000040000fa
:10000800ac170000ce1700001a040000f01700001b
:10001800121800001a0400001a0400001a04000054
:100028001a0400001a0400001a0400000803000063
:100038001a0400001a0400001a040000d20200008a
:10004800d60200001a0400001a040000260300006b
:100058001a0400001a0400001a0400001a04000020
:100068001a0400001a0400001a0400001a04000010
:100078001a0400001a0400001a0400001a04000000
:100088001a0400001a0400001a0400001a040000f0
:100098001a0400001a0400001a0400001a040000e0
:1000a8001a0400001a0400001a0400001a040000d0
:1000b8001a0400001a0400001a0400001a040000c0
:1000c8001a0400001a0400001a0400001a040000b0
:1000d8001a0400001a0400001a0400001a040000a0
:1000e8001a0400001a0400001a0400001a04000090
:1000f8001a0400001a0400001a0400001a04000080
:100108001a040000841500001a0400001a040000f4
:100118001a0400001a0400001a0400001a0400005f
:100128001a0400001a0400001a0400001a0400004f
:100138001a0400001a0400001a0400001a0400003f
:100148001a0400005a1400001a0400001a040000df
:100158001a0400001a0400001a0400001a0400001f
:100168001a0400001a0400001a0400001a0400000f
:100178001a0400001a0400001a0400001a040000ff
:100188001a0400001a0400001a0400001a040000ef
:100198001a0400001a0400001a0400001a040000df
:1001a8001a0400001a0400001a0400001a040000cf
:1001b8001a0400001a0400001a0400001a040000bf
:1001c8001a0400001a0400001a0400001a040000af
:1001d8001a0400001a0400001a0400001a0400009f
:1001e8001a0400001a0400001a0400001a0400008f
:1001f8001a0400001a0400001a0400001a0400007f
:100208001a0400001a0400001a0400001a0400006e
:100218001a0400001a0400001a0400001a0400005e
:100228001a0400001a0400001a0400001a0400004e
:100238001a0400001a0400001a0400001a0400003e
:100248001a0400001a0400001a0400001a0400002e
:100258001a0400001a0400001a0400001a0400001e
:100268001a0400001a0400001a0400001a0400000e
:100278001a0400001a0400001a0400001a040000fe
:100288001a0400001a0400001a0400001a040000ee
:100298001a0400001a0400001a0400001a040000de
:1002a8001a0400001a0400001a0400001a040000ce
:1002b8001a0400001a0400001a0400001a040000be
:1002c8001a0400001a0400001a0400001a040000ae
:1002d8001a0400001a0400001a0400001a0400009e
:1002e8001a0400001a0400001a0400001a0400008e
:0402f8001a040000e4
:020000040000fa
:100400000f2321000eff21000e01880000000000d4
:10041000000020000000e000020032000001200087
:10042000200288000c000700c09a21000100200073
:100430000f000700000020000000e0000200320072
:100440000000020000000000561202000000000040
:100450000040da000000fe00200020000000e00064
:1004600002003200002020009001880000000600f9
:10047000a1028800800078000000eb001a0037001d
:10048000e280400054a0b4009101ba00e280400034
:1004900054a0b4009102ba00e280400054a0b4001d
:1004a0000002eb00472bde00f507b200a601880032
:1004b000602ce10008003a000049eb000201e8006e
:1004c000020039003420ec0002f0a0008301e900b2
:1004d000f9ff3e00040037006128e100010032000e
:1004e0000082eb00040007001101ba000200e000e6
:1004f000e3ff3a000000060004d0a300e20f490029
:100500001c003900810278003549ba000201e80078
:10051000020039003420ec0002f0a0008301e90061
:100520000f0032002549ba000201e800020039003c
:100530003420ec0002f0a0008301e9000800320042
:100540000400e0000600320015c9ba000201e8000c
:10055000020039003420ec0002f0a0008301e90021
:100560008180e80054a0b4000300e000e2ff3a00fc
:10057000000006009102ba00055978008301e900e5
:10058000f7ff3200c82ade00055978008301e90030
:10059000f3ff32000400e000f1ff320011d9ba008d
:1005a000eeff370000e8a90000400600801f780039
:1005b0000a21ef006c31ec00f211e200030032007e
:1005c000f231ef004630ec0002003700100020004e
:1005d000908f8800e831ec00ec31ec000108a900b4
:1005e0007631ec00e231ec00e03f2000e211e30064
:1005f00003003600e231ef006411f800e411f90065
:100600006831ec00e631ec004f0078000040060055
:100610003600f800809fbe00829fbe00849fbe000f
:10062000869fbe0005e1a9000021ef00d30007006e
:100630000068a9004f03be004f02be004f01be007c
:100640004f00be003600f900004006003600f800fa
:10065000809fbe00829fbe00849fbe00869fbe001a
:100660000021ef0005e1a9000068a9001111800038
:100670002602f8004a10f9000000eb002262ab00ed
:1006800003003a00688060000000e9004f00de00cf
:100690002602f8004c10f9002262ab000100320083
:1006a0000000eb002602f8004e10f9002262ab00b9
:1006b000010032000000eb002602f8005010f900a3
:1006c00051828000638280007282800081c041007c
:1006d00082c04000814178008204210003497800f3
:1006e00081042100914078008180fb00828280009b
:1006f000810f510047003a00e10f500045003a00d9
:1007000050828000ef0f500003003e004a10f800b6
:100710001c10f90004003700508280000180800026
:1007200081007000e180880060828000718280001a
:100730004800dd0001004000f08088001c10e2004d
:100740000d003a000000e0000b003a005230ef00cc
:10075000f10f20005382800081816100c3808800f6
:1007600050002000b080880010002000d080880059
:100770008200070028003700007d2000e811e30018
:10078000040036000610e200020032000630ef00de
:100790000430ef00e831ef00e080800011582000c5
:1007a000810f500004003a00005020000010e300c8
:1007b00014003a001500370051582000810f5000f6
:1007c00010003a00005020000010e3000d003a0035
:1007d000f03f20001e10b60031062000810f5000af
:1007e00006003e00f08e8800f08e80004200dd00a2
:1007f000b08e8800d611f8007c10f900e031ef00cf
:10080000020037001000200090828800e031ef00e5
:1008100001003700590007000168a9004f03be001e
:100820004f02be004f01be004f00be003600f9006f
:0c083000004006000040da000000fe005e
:020000040000fa
:10083c00ba30ef0050052000e0858800be30ef0094
:10084c00c030ef00c230ef00c430ef00da30ef0000
:10085c0032002000e286880001192000f186880011
:10086c00a0002000b0848800c084880083672c001e
:10087c00d38488009c30ef009e30ef00a030ef0056
:10088c008334200013858800130020002385880002
:10089c00a630ef0024002000448588002435200079
:1008ac0054858800638588005830ef005630ef007f
:1008bc00d0828800e08288005e30ef0001838800df
:1008cc006230ef00210320002183880001232000e7
:1008dc00318388008111200041838800b1042000fd
:1008ec0051838800010f200061838800c1302000f3
:1008fc007183880081838800813e20009183880069
:10090c0041062000a1838800b0838800c183880041
:10091c00d2838800e283880060042000f083880082
:10092c00018488008230ef008430ef00c008200082
:10093c00b08e8800200221004202200000014100fc
:10094c008000eb0001087800110098006400400062
:10095c00820f5000fbff3a00a0002000b0808800fe
:10096c0040002000c08088001a30ef000000060014
:10097c002202ab00040032002222a90030118000b8
:10098c002202ab00fcff3a000168a9002168a80014
:10099c00000006002168a900c0808000b1808000a2
:1009ac008180fb00a18588002168a8008080fb0065
:1009bc00918588004800de00b08588009085800015
:1009cc00a2858000b185800000004100010040003c
:1009dc00c0858800b410f8002402f900b610f800a5
:1009ec002402f900b210f8002402f900b810f80043
:1009fc002402f90000000600108080008000eb004b
:100a0c00eb0f5000e08f5800aa003e0000060100da
:100a1c000b003700130037001b003700280037008d
:100a2c0035003700420037004f0037005c003700bc
:100a3c006900370075003700820037008f003700df
:100a4c0000112000b0808800a0002000c080880029
:100a5c0010002000d080880020002000108088002a
:100a6c009400370010112000b0808800a0002000f6
:100a7c00c080880010002000d0808800f00f20007b
:100a8c00108088008b00370020112000b080880077
:100a9c009a10f8001810f90010002000d08088007f
:100aac00300020001080880010808000eb0f500078
:100abc008000360010002000108088007d00370078
:100acc0030112000b08088009c10f8001810f9003c
:100adc0010002000d080880040002000108088008a
:100aec0010808000eb0f50007200360010002000c8
:100afc00108088006f00370040112000b080880003
:100b0c009e10f8001810f90010002000d08088000a
:100b1c00500020001080880010808000eb0f5000e7
:100b2c00640036001000200010808800610037003f
:100b3c0050112000b0808800a010f8001810f900a7
:100b4c0010002000d08088006000200010808800f9
:100b5c0010808000eb0f5000560036001000200073
:100b6c00108088005300370060112000b08088008e
:100b7c0050002000c080880010002000d080880029
:100b8c00700020001080880010808000eb0f500057
:100b9c004800360010002000108088004500370007
:100bac0070112000b080880050002000c0808800a8
:100bbc0010002000d0808800800020001080880069
:100bcc0010808000eb0f50003a003600100020001f
:100bdc00108088003700370080112000b08088001a
:100bec001830ef0010002000d0808800900020000a
:100bfc001080880010808000eb0f50002d00360014
:100c0c0010002000108088002a003700901120006e
:100c1c00b0808800a810f8001810f900100020000f
:100c2c00d0808800a00020001080880010808000f8
:100c3c00eb0f50001f0036001000200010808800c1
:100c4c001c003700a0112000b0808800aa10f8000a
:100c5c001810f90010002000d0808800b00020008f
:100c6c001080880010808000eb0f500011003600bf
:100c7c0010002000108088000e003700ac10f80027
:100c8c001810f900b0112000b0808800100020006e
:100c9c00d0808800f03fb0000010e30003003a0061
:100cac00f00f200010808800020037001000200098
:100cbc001080880000000600108080008000eb008f
:100ccc00f60f5000e08f580071003e000006010046
:100cdc002f00370033003700230037002700370080
:100cec001200370034003700380037003c00370062
:100cfc0040003700440037004800370051003700ef
:100d0c005a0037005e0037001200370060003700d1
:100d1c005f0037005e0037005d0037005c00370075
:100d2c005b0037005a003700050037005e10f800f2
:100d3c001810f90000542000b080880054003700cf
:100d4c008210f8001810f900005a2000b0808800ba
:100d5c004f0037007210f8001810f90000582000ee
:100d6c00b08088004a0037005a10f8001810f900bb
:100d7c0000522000b0808800450037005c10f8005d
:100d8c001810f90010522000b08088004000370085
:100d9c005610f8001810f90000512000b08088009f
:100dac003b0037005810f8001810f90010512000c3
:100dbc00b0808800360037006010f8001810f90079
:100dcc0000562000b0808800310037006210f80017
:100ddc001810f90010562000b08088002c00370045
:100dec006410f8001810f90020562000b08088001c
:100dfc00270037006610f8001810f9003056200054
:100e0c00b0808800220037006810f8001810f90034
:100e1c0050562000b08088001d00370050838000a1
:100e2c00b11620000102b800823e2000110009001a
:100e3c0042aad800c0808800f0562000b0808800fc
:100e4c001300370060838000b11620000102b80047
:100e5c00823e20001100090042aad800c080880000
:100e6c0010572000b0808800090037006e10f80081
:100e7c001810f90090562000b0808800040037004c
:100e8c007010f8001810f900b0562000b0808800df
:100e9c0000000600881f7800d0808000e40f50000e
:100eac004800320006003e00e10f500020003200e6
:100ebc0009003900e20f500089003a003a0037006f
:100ecc00e60f50004d00320044003900e70f50008f
:100edc0083003a0051003700008080000110200090
:100eec00810f50000400320001502000810f50008f
:100efc007b003a000500370010808000eb0f50009b
:100f0c0077003e00bcfe0700750037006aff070043
:100f1c000410e2000300320050002000d080880052
:100f2c006f00370070002000d08088006c00370004
:100f3c001a30ef00001020000010e30005003a000a
:100f4c000080e9000210e30002003a0020002000bb
:100f5c00108088000810e20008003a00a05a200017
:100f6c001e10e30005003a0050002000d0808800dd
:100f7c0010002000408088000230ef0085fe070042
:100f8c00f00f20001c10b600f20f500054003a0075
:100f9c00009020000010e30051003a0010002000e7
:100fac00708088004e00370040002000b080880020
:100fbc000a10f8001810f9001a30ef0075fe07003f
:100fcc00470037007001200010808800500020007e
:100fdc00d08088006ffe07004100370000512000d0
:100fec00b08088005610f8001810f900600020003e
:100ffc00d080880067fe07003900370010512000b0
:10100c00b08088005810f8001810f900700020000b
:10101c00d08088005ffe0700310037000c10e20022
:10102c000a00320060808000e40f500005003a0096
:10103c0000542000b08088005e10f8001810f900f1
:10104c0054fe07000c30ef00250037000410e200be
:10105c000200320050002000d08088000230ec00ea
:10106c0010808000e40f500002003e005000200071
:10107c001080880010808000ed0f500002003600b8
:10108c0050002000108088001880800065045400f7
:10109c004240dd0021022100008040001000e000f1
:1010ac000f003200c240dd004002210000804000f1
:1010bc00100078004610e30009003a00fefe07001d
:1010cc00318280004244dd004002210008004000d3
:1010dc002202210008044100188840002dfe070060
:1010ec004f04780000000600f0808000e10f5000f3
:1010fc00020036000002d100010037000002780027
:10110c0002af2f00f3ff2f00e1808000028140002e
:10111c00e081490011092000810f5100e08f590036
:10112c002f013e00020601009100370097003700a6
:10113c002b0137002a01370029013700280137001d
:10114c00270137002601370025013700240137001d
:10115c00230137002201370021013700200137001d
:10116c001f0137001e0137008f0037009500370034
:10117c001b0137001a01370019013700180137001d
:10118c00170137001601370015013700140137001d
:10119c00130137001201370011013700100137001d
:1011ac000f0137000e0137000d0137000c0137001d
:1011bc000b0137000a01370009013700080137001d
:1011cc00070137000601370005013700040137001d
:1011dc00030137000201370001013700000137001d
:1011ec00ff003700fe003700fd003700fc00370021
:1011fc00fb003700fa003700f9003700f800370021
:10120c00f7003700f6003700f5003700f400370020
:10121c00f3003700f2003700f1003700f000370020
:10122c00ef003700ee003700ed003700ec00370020
:10123c00eb003700ea003700e9003700e800370020
:10124c00e7003700e6003700e5003700e400370020
:10125c00e3003700e2003700e1003700e000370020
:10126c00df003700de0037005d0037006700370015
:10127c00710037007b003700d9003700840037003d
:10128c00d7003700d6003700d5003700960037005e
:10129c00d30037009f003700d1003700d000370053
:1012ac00cf00370085003700cd003700cc00370069
:1012bc00cb003700ca003700c9003700c800370020
:1012cc00c7003700c6003700c5003700c400370020
:1012dc00c3003700c2003700c1003700c000370020
:1012ec00bf003700be003700950037009d00370067
:1012fc009f003700a0003700a1003700a200370084
:10130c00a3003700a4003700b5003700b400370045
:10131c00b3003700b2003700b1003700b00037001f
:10132c00af003700ae003700ad003700ac0037001f
:10133c00ab003700aa003700a9003700a80037001f
:10134c00a7003700a6003700a5003700a40037001f
:10135c00a3003700a2003700a1003700a00037001f
:10136c009f0037009e0037008d0037009500370036
:10137c005610f8001810f90000512000b0808800b9
:10138c0010002000d0808800950037005810f8001d
:10139c001810f90010512000b080880010002000b7
:1013ac00d08088008e0037005a10f8001810f90011
:1013bc0000522000b080880010002000d0808800ef
:1013cc00870037005c10f8001810f900105220004c
:1013dc00b080880010002000d0808800800037008a
:1013ec001481880030828000000242002481880031
:1013fc006010f8001810f90000562000b08088002a
:10140c0010002000d08088007500370034818800df
:10141c003082800000024200448188006210f80093
:10142c001810f90010562000b08088001000200021
:10143c00d08088006a003700548188003082800098
:10144c0000024200648188006410f8001810f90052
:10145c0020562000b080880010002000d08088002a
:10146c005f003700748188003082800000024200e7
:10147c00848188006610f8001810f900305620009e
:10148c00b080880010002000d08088005400370005
:10149c00948188003082800000024200a481880080
:1014ac006810f8001810f90050562000b080880021
:1014bc0010002000d080880049003700b4818800db
:1014cc003082800000024200c48188006a10f8005b
:1014dc001810f900f0562000b08088001000200091
:1014ec00d08088003e003700f48188003082800074
:1014fc0000024200048288006e10f8001810f900f7
:10150c0090562000b080880010002000d080880009
:10151c0033003700148288003082800000024200c1
:10152c00248288007010f8001810f900b0562000c2
:10153c00b080880010002000d08088002800370080
:10154c00813e2000810f500003003600010078001e
:10155c00908388000300370021032000810f500086
:10156c001f0036001e10f8007410f9001c00370024
:10157c00b08388001a003700c08388001800370039
:10158c00d083880016003700e083880014003700f1
:10159c00f0838800120037000084880010003700a8
:1015ac001084880020808800001a2000c0808800e9
:1015bc0050002000b080880010002000d0808800ef
:1015cc000700370020848800101a2000c080880093
:1015dc0050002000b080880010002000d0808800cf
:1015ec000000060090828000e10f500060013a007c
:1015fc005230ef00e0808000ef0f5000d2003e0030
:10160c00e20f5000c000320005003e000000e00078
:10161c0009003200e10f500055013a00ac003700d0
:10162c00e40f5000c2003200be003900e50f50003c
:10163c004f013a00c1003700f1808000d18588004d
:10164c000080800002402000820f50004e003200cb
:10165c0006003e000000e0000e00320002102000e8
:10166c00820f500042013a002800370002902000ff
:10167c00820f50007700320002402100820f500090
:10168c008e00320002502000820f500038013a00c8
:10169c0057003700e18f500004003200e98f5000f2
:1016ac0002003200e48f500013003a00c808dd003d
:1016bc00018088001630ef00008080004800de00ba
:1016cc000010b000c080880010002000d08088007e
:1016dc00f00f200010808800009020000010e30024
:1016ec0003003200004021000010e30020013a000a
:1016fc000430ef001e0137001630ef00c180880067
:10170c0010002000d080880019013700e58f5000b0
:10171c0004003200e98f500002003200e48f5000c8
:10172c0014003a00c808dd00018088001630ef0074
:10173c00008080004800de000010b000c0808800ef
:10174c0010002000d0808800f00f2000108088004e
:10175c00e031ef00009020000010e30003003200a5
:10176c00004021000010e30001013a000430ef00ba
:10177c00ff0037001630ef00c180880010002000f9
:10178c00d0808800fa003700e98f500013003a002f
:10179c0000902000008088001630ef00018080004f
:1017ac00c808de000110b000c180880011002000c4
:1017bc00d1808800f10f200011808800e031ef000b
:1017cc000010e30003003200004021000010e30091
:1017dc00e7003a000430ef00e50037001630ef0068
:1017ec00c180880010002000d0808800e000370005
:1017fc00e98f500012003a00009020000080880011
:10180c001630ef0001808000c808de000110b00027
:10181c00c180880011002000d1808800f10f2000c9
:10182c00118088000010e30003003200004021000a
:10183c000010e300ce003a000430ef00cc0037007b
:10184c001630ef00c180880010002000d080880086
:10185c00c7003700f48f500013003a0000402100fd
:10186c00008088001630ef00008080004800de0009
:10187c000010b000c080880010002000d0808800cc
:10188c00f00f200010808800009020000010e30072
:10189c0003003200004021000010e300b4003a00c5
:1018ac000430ef00b20037001630ef00c180880022
:1018bc0010002000d0808800ad0037001630ef00fb
:1018cc00c180880010002000d0808800a80037005c
:1018dc00e031ef00f0808000e085880011002000ee
:1018ec00b1808800018080005105b300c180880060
:1018fc00a15a2000810f50009d003a0010002000da
:10190c00d08088009a0037001e10f800bc10f90037
:10191c0020002000b08088007811f8001810f90021
:10192c00930037001e10f800be10f900900037002d
:10193c001e10f800c210f9008d0037001e10f800c0
:10194c00c410f9008a00370001808000025020008a
:10195c00828f50006800320009003e000210200007
:10196c00828f5000310032000230b000828f500064
:10197c00680032000100e0000b00320077003700f5
:10198c0002902000828f500038003200004021006d
:10199c00808f50007600320000602000808f500055
:1019ac006e003a00720037001430ef000080fb002c
:1019bc00f10f50000c003200f20f500012003200f8
:1019cc00f00f500013003a001e10f800da10f90066
:1019dc00b080880010002000c0808800d080880073
:1019ec000830ef00620037001e10f800dc10f90020
:1019fc0010012000b080880010002000c0808800fa
:101a0c00d08088005a0037001e10f800de10f90054
:101a1c005700370060002000b08088001830ef00bd
:101a2c0010002000d0808800510037001430ef00e7
:101a3c0001112000810f5000040032008100e800e9
:101a4c00810f500003003a00490037000230ef00cc
:101a5c004700370060002000b08088001830ef008d
:101a6c0010002000d0808800410037000080fb006f
:101a7c00f10f500009003a00b08088001e10f800e9
:101a8c002c12f900609180000080a000c0808800ba
:101a9c0010002000d080880035003700f20f500075
:101aac000b003a00f180800061918800100020004a
:101abc008080880022012000b2808800619188001b
:101acc002c12f8001810f900d0808800280037007c
:101adc00f30f500026003a00b08088001e10f8006a
:101aec002c12f9002c12f8001810f900100020002c
:101afc00d08088001e0037001410e20003003a006a
:101b0c00e031ef0010002000a080880076fd070077
:101b1c0017003700f00050008180fb009180880096
:101b2c0091808000eb8f500002003600b100200045
:101b3c0091808800b0808800908080000000400078
:101b4c00610921000080400010007800c0808800ee
:101b5c0010002000d08088000500370060002000b5
:101b6c00b08088001830ef0010002000d080880072
:101b7c00000006007000200000708800e0e02100ea
:101b8c008070880000002400b07088008001200064
:101b9c00307088000e2eef001e2eef000e0ea800e7
:101bac000e2ea8001f2ea8001f4ea8001e4ea80027
:101bbc00000128002008880000142000100888006c
:101bcc000003280090088800a00f200070088800ef
:101bdc000000280080088800c012200060088800df
:101bec00e04280000040a1000006b300e042880003
:101bfc00204380000007b30020438800b0438000de
:101c0c0000c0a00000d0a10000e0a000b0438800fc
:101c1c000042800000c0a10000d0a00000e0a100a4
:101c2c00004288002002a900001180000010a100d1
:101c3c000020a0000011880020a2a9002062a800aa
:101c4c00300020004011880023a2a90023e2a80044
:101c5c0010118000000cb3001011880021e2a800c4
:101c6c002342a8000168a9002168a800118ea800d1
:101c7c00000006002002a900001180000010a10045
:101c8c000020a0000011880020a2a9002062a8005a
:101c9c0060918000e10f500003003a0030002000fa
:101cac00401188000500370060918000e20f500061
:101cbc0002003a00100020004011880023a2a90065
:101ccc0023e2a80010118000000cb3001011880052
:101cdc0021e2a8002342a8000168a9002168a800fd
:101cec00118ea8000000060001eca900022cef00e8
:101cfc00102cef00802c230020608800906088005e
:101d0c00016ca8000f6ca800207a210030608800bc
:101d1c00916080008100d1004006b000008040003e
:101d2c00a06088002728a8002928a800202cef00f4
:101d3c0000c028001061880073f02f002161800022
:101d4c00018061008006b300206188002061800062
:101d5c000000a0000010a1002061880000402800b5
:101d6c00d061880072002f00e161800001006100e9
:101d7c008107200000807000e0618800322cef00a9
:101d8c00362cef00282cef00302cef002a2cef0023
:101d9c00262cef002c2cef004e2cef00402cef00eb
:101dac0000c02400106288002062800080816100e5
:101dbc000307b30023628800206280000000a000ab
:101dcc000010a1002062880000582200d062880018
:101ddc00e06280000001610002817000e262880014
:101dec00462cef00040cd500406288004a2cef0012
:101dfc00007d200090628800803e2000b062880048
:101e0c004e2cef00040cd50080628800602cef0093
:101e1c00622cef0001eca80000000600f2fb2f0082
:101e2c00103a800000016100600420007105200060
:101e3c002374200080497800814978008249780019
:101e4c00ba66ef0002fc2f00b3338000030161007f
:101e5c006200b300b2338800f20f2c00b53380005f
:101e6c00050261000350200084817100b3338800a7
:101e7c00b3c2b300846c2000034a7800e5c1510062
:101e8c0083427800946c2000054a7800e33380008c
:101e9c00030161000280a000e2338800c5c2b300d8
:101eac00446c2000054a7800123a80000260a000c1
:101ebc002374200080497800814978008249780099
:101ecc000000060010002800202a88000008b0003e
:101edc00002a8800402a88004c25ef004225ef009c
:101eec004625ef0000fa2000502a8800000006006a
:101efc00f0022000403a880075004000303a88001b
:101f0c00f0f32f004427b60000fe2f004427b60044
:101f1c00103a80000080a0000090a10000a0a10059
:101f2c00103a8800f08f2f004427b60010002000d4
:101f3c00a209200081072000337420008149780019
:101f4c0082497800804978007205200061042000e5
:101f5c0023742000814978008249780080497800f8
:101f6c000200270001002100133a800003006100e9
:101f7c00810f5000fcff3a0001022000123a800051
:101f8c0002806000fdff320050c7a80050e7a90096
:101f9c0051a7a800803a80000030b30000a0a00038
:101fac00803a880051e7a800000006000023ef00eb
:101fbc005018800000e0a00000f0a100501888002c
:101fcc00f00f2c000a03b6000080a0005018880007
:101fdc0000f82f00b21e8000820060003100b300b8
:101fec00b11e8800d31e8000830060003100b30056
:101ffc00d11e8800f21e8000820060003100b30008
:10200c00f11e88000403b6003000b30020188800cd
:10201c00b01e80000030b300b01e8800d01e8000bf
:10202c000030b300d01e8800f01e80000030b300da
:10203c00f01e8800101880000006b30010188800ed
:10204c0002e3a9000d03a9000d23a9000d43a9006b
:10205c00102080000030b30000a0a00000b0a00051
:10206c001020880001e3a800100020009f0007004a
:10207c000004a800011020000320800003806000f1
:10208c00fdff32000a03a8000024a8000120200054
:10209c000220800002806000fdff32000a23a800ad
:1020ac000044a80001402000032080000380600051
:1020bc00fdff32000a43a80000e4a800010028003c
:1020cc000220800002806000fdff32000ae3a800bd
:1020dc000424a8000444a9000404a800010820005a
:1020ec002320800003806000fdff32000424a9003f
:1020fc000524a8000544a9000504a8000100280037
:10210c002220800002806000fdff32000524a9001f
:10211c000624a8000644a9000604a8000108200013
:10212c003320800003806000fdff32000624a900ec
:10213c000b24a8000b44a9000b04a80001002800e4
:10214c005220800002806000fdff32000b24a900a9
:10215c0001fe2f00031c8000038060006000b300b0
:10216c00001c8800f00f2e00021c80008201600011
:10217c000260200003017100021c8800131c800007
:10218c00038160006200b300121c88008223b60039
:10219c00231c8000038160000220a000221c880008
:1021ac00221c80008201600002402000830171002b
:1021bc00231c880063382000938960008603b600d6
:1021cc0000007100301c8800000006000e11e200b7
:1021dc0005003400a08d8000e10f500002003a0091
:1021ec00140ea80001003700140ea900d01f200007
:1021fc001604e30003003e007911a8001000200033
:10220c00508d8800e03d20001604e30003003600ea
:10221c007911a80020002000508d8800509a2000d1
:10222c001404e30003003e007911a80030002000e4
:10223c00508d880060b820001404e30003003600c1
:10224c007911a80040002000508d8800718b80000f
:10225c002103b00040062000808f500003003600a0
:10226c007891a80050002000508d8800c08c800010
:10227c00e10f500003003a007851a80060002000e4
:10228c00508d8800aa11ed00e50f50000d003e00a6
:10229c00508d800004030700610060004800dd00e1
:1022ac00f1ef2f00a270800082806000810070002e
:1022bc00a1708800c631ef00b431ef009c31ef0003
:1022cc0002003700150ea9007831ef00000006005f
:1022dc00c4fc0700508f8000e30f50000200360052
:1022ec00ea31ef00ebfa0700000006006102b800cb
:1022fc006011b8000677210007002000e00f5200a3
:10230c00e08f5a0009003a000a00370061005000c3
:10231c00e0805800fdff3a0062014100e081490075
:10232c00840f5100858f5900020031000600be0059
:10233c00f6ff3700000006009611e20019003a0083
:10234c007811e20017003a0010002000a08d8800e0
:10235c00808b8800d0208000e90f500001003e00e7
:10236c009a31ef00d0208000e90f50000e003600ab
:10237c0080022000d08c88009a11f8001211f9000c
:10238c00a0002000d9ff070000322000d08c88006c
:10239c009a11f8001211f900a0002000d3ff0700d9
:1023ac0001003700b431ef0000000600618e8000a0
:1023bc00208e80000100b800d0908800908e8000a4
:1023cc001811e30005003100918e8000c088800058
:1023dc0000805000f08d88000200370010002000b3
:1023ec00f08d8800d0908000f28d800011000900e3
:1023fc000280d8004300de00508e8800ca11f8001d
:10240c005a10f900d0908000828e800011000900d3
:10241c000280d800f0908800918e8000a28e8000ff
:10242c00908e8000d411b400810041008181b900ec
:10243c00c510de00e1908800f0908000e2908000f2
:10244c004700dd00110009000280d80000918800cf
:10245c0004918000958e800003918000a08e8000f6
:10246c00928e8000a68e800084aab9008380b90069
:10247c00110009000280d8008680b90000005200cb
:10248c0010918800109180004200de0010918800ad
:10249c002212f8005c10f900e830ef000000060092
:1024ac00889fbe008a1f7800a1062000802c230084
:1024bc000102b800420620001100090042aad8000f
:1024cc004800de00708e880089fe0700a9fd070019
:1024dc007cfe070051fe0700b4fe0700d4f807008d
:1024ec001903070000fe07002068a8002108a800b7
:1024fc0020e8a8001ef907008fff0700046ea80053
:10250c0078b1a90010002000b08d88005100200087
:10251c00d180880075ff0700162eef008000200088
:10252c003070880010aea90012aea900010037006f
:10253c0067ff0700b611e200fdff32000a00280019
:10254c0009772100908b80004500dd001087880002
:10255c00708b80004500dd00208788009c11e20014
:10256c000d003a001a04e200070032000004eb00f0
:10257c00a88d8800388e88007888880013ff0700a3
:10258c001a04e200faff3a0010002000e08c8800e8
:10259c009831ef00aa31ef002282ab0004003a0020
:1025ac00210880000100650001003a0005e1a80047
:1025bc000068ab00020032000068a9000021ef00a7
:1025cc00b411e200020032005610e20001003a00a1
:1025dc00ec31ef00808b8000e0020700409080001f
:1025ec00ea0f500003003e0050908000ea0f5000ac
:1025fc0005003600409080000a12b4000000d100a3
:10260c008090880002003700a00020008090880095
:10261c00a08880006102b800823e200011000900f1
:10262c0042aad80000878800e810e20001003200be
:10263c005eff070080908000010620000102b800b8
:10264c00d20220001100090042aad800208e880076
:10265c00398e88001eff070070808000e10f50004b
:10266c0007003a0020888000f30f50000400360069
:10267c0080fd07001030ef000e30ef000431ef004a
:10268c002dff07009a01070030888000e10f5000f1
:10269c0022003a00e0878000428e8000d1878000c3
:1026ac000000410001005000e0878800e0878000b6
:1026bc006102b800320020001100090042aad800c3
:1026cc00d0878800c087800063208000b18780009d
:1026dc000080410001005000c0878800c087800046
:1026ec006102b8001100090042aad800000178006c
:1026fc00b2878800fa10e20007003200d28780000f
:10270c00b0878000813e20000182b80011000900d2
:10271c0042aad800008888000631ef00608b800048
:10272c00ba11e3000d0032006c11f800ba11f90077
:10273c0000838000bc31b400b831ec0000042000f0
:10274c00b811e30005003a00e08d80004600de0081
:10275c00908d8800b831ef00bc31ef009bfe070074
:10276c0078ff370091888000408e800000805000f8
:10277c0040898800608980002811b4006089880035
:10278c00c0e02f002c11e30002003d00608988009e
:10279c0004003700401f20002c11e300010034001e
:1027ac00608988002811e20001003d002831ef000b
:1027bc00408980004480de00408988002c11e200b2
:1027cc0007003d002c11ee005089880050898000d4
:1027dc004880de00508988002a31ee000300370063
:1027ec00608980004680de00508988004089800026
:1027fc005289800091888000000041000100400057
:10280c0070898800300620000a11e30008003e00a1
:10281c0051888000732080004206200011000900be
:10282c008280d8008000fd008388b9002e31b4006e
:10283c00007d20002e11e300020034007088880017
:10284c00060037002e11e20002003d000e31ef00b1
:10285c00020037002e11f8000e11f900a08d800037
:10286c00e10f50000a003a009a11e20004003a000d
:10287c00c631ef004225ef004625ef00040037007b
:10288c000e11f8004205f9000e11f8004605f9008a
:10289c00c811f8005610f900602080004200de00dc
:1028ac00c082880000000600046ea900046ea90016
:1028bc00046ea900046ea900046ea8000928a900e2
:1028cc0000400600808780001211e30005003a00ea
:1028dc00800220001211e30002003600ec30ec0004
:1028ec0001003700ec30ef001211f800f010f90085
:1028fc00ea30ef000231ef0015eea900f230ef00e4
:10290c00f430ef00ee30ef00d08880006102b800a8
:10291c00c20020001100090042aad8006a00400041
:10292c00208988008fff070000000600881f7800b0
:10293c00000478000e04f800c811f9001211f80018
:10294c001a11f900dfff0700e0888000e40f500047
:10295c0001003a001c31ef00e088800000004000cc
:10296c00821321000000410010007800a48a80002e
:10297c00b58a800000005200e0805a00a08a8800ce
:10298c00b18a8800e3888000838141000301410003
:10299c0008097800e00f5000e08f580002003d005d
:1029ac005431ef005631ef00e08880000000400009
:1029bc00811321000080400010017800a08a800063
:1029cc00b18a800000004100e0804800a08a8800a5
:1029dc00b18a88001c31ec004e09dd004200de009b
:1029ec0000007100c288de00a08888008290800000
:1029fc00408e8000710820000102b800110009000f
:102a0c0042aad800008e8800c0a82000c011e300a4
:102a1c0001003600008e8800008e8000b004b100ea
:102a2c001411e30001003600a18880008000eb0047
:102a3c00800f54000100360080005400a2888000f2
:102a4c00008e800000004100d020b0000000d100ba
:102a5c002258200002004000b08888004308dd00a6
:102a6c006102b800720320001100090042aad800cc
:102a7c00228e80000012b800823e20001100090056
:102a8c0042aad800800078008100e8008188880084
:102a9c001212e20017003a00d08880001412b40021
:102aac001211e30004003600d08880001412b40028
:102abc00d08888000f003700d1888000a09080005b
:102acc00008050001211e30008003100a09080003b
:102adc001a11e30005003600d1888000a090800018
:102aec0000805000d0888800020037001211f800d6
:102afc001a11f9004f047800000006003600f800a7
:102b0c00809fbe00829fbe00849fbe00869fbe0039
:102b1c00046ea900046ea900046ea900046ea9003d
:102b2c00046ea800380cf8004811f90012aea80089
:102b3c00808d80001211e300030032000a31ef0097
:102b4c001211f800b011f9000a31ec00a08d8000d0
:102b5c00e10f50000600320040003900e20f500037
:102b6c0039003200e30f500051003a000c003700de
:102b7c009a11e20001003a00c631ef00c611f800cc
:102b8c004e0cf9004e0cf800260cf900408a80001f
:102b9c0066ff07004811f8004a11f900440037009d
:102bac003611e20006003a00c811f800d211f90003
:102bbc00600321004811b4004700de00608e8800dd
:102bcc003631ec00b0898000e40f50001100360063
:102bdc00708e8000b18980008088b900808e88005a
:102bec00c811f800d411f90010002000a08d880045
:102bfc00a08e8000d211e3000200360010002000ed
:102c0c00408788000077210030618800706288005e
:102c1c0002003700262cef004e2cef00b08980000c
:102c2c00e80f50000500360010002000a08d880031
:102c3c00007721003061880070628800408a800033
:102c4c003aff07001a00370010002000a08d880002
:102c5c00408a800035ff070015003700262cef0056
:102c6c004e2cef004c31ef000032200080888800a1
:102c7c0000772100808988002431ef003631ef0085
:102c8c00c831ef00712080008100e9006002200053
:102c9c00808f500004003e00308780000e04b4008a
:102cac000000d10030878800408a80001fff070099
:102cbc00ea31ec00f431ec0012aea9008080800007
:102ccc00e10f500001003a000431ec00100020002c
:102cdc00308888000728a9004f03be004f02be00b1
:102cec004f01be004f00be003600f9000040060048
:102cfc00b02080006102b800b20020001100090071
:102d0c0042aad80050838800f00620006083880017
:102d1c006b00500030858800908b8000a48b800065
:102d2c00538c8000628c8000718c8000000042000b
:102d3c000300400002004000010040006102b900a5
:102d4c005200200011000900422ad800708b880024
:102d5c008c11f8008e11f9008a11f8008c11f90011
:102d6c007411f8008a11f9007211f8007411f9004d
:102d7c00708b8000708b80006e11f800da11f900f6
:102d8c00000006000400fa0000b022000100200040
:102d9c00e0bf9f00f1bf9f002008f8005a11f90016
:102dac002208f8005c11f9002608f8005e11f90001
:102dbc002808f8006011f9002a08f8006211f900df
:102dcc002028ef002228ef002628ef002828ef000b
:102ddc002a28ef0030002400403988006fb8970093
:102dec00ffb89700613988006fb89700ffb897005b
:102dfc00503988000500fc0050052000703988000f
:102e0c00a00a20007039880029e7a8000000000003
:102e1c00000000001000200034fd0700a00f20006f
:102e2c00a002880010002400403988006fb8970079
:102e3c00ffb89700613988006fb89700ffb897000a
:102e4c0050398800c18b80000000eb000108bb00ea
:102e5c008000eb000188bb000500fc005005200041
:102e6c0070398800a00a20007039880029e7a80072
:102e7c0000000000000000005a11f8002008f900c2
:102e8c005c11f8002208f9005e11f8002608f90020
:102e9c006011f8002808f9006211f8002a08f900fe
:102eac000080fa00000006009011e20003003a00d6
:102ebc006831ef0011002000818c8800a18c80000b
:102ecc00808f50000e003100301f20006811e3008d
:102edc0003003e0010002000908c88001300370087
:102eec009231ef00803e20006811e3000f003600a5
:102efc006831ef008100e800a18c88000b003700de
:102f0c00017d2000428b8000810f510002003600b1
:102f1c009431ef006831ef000000e00003003a004c
:102f2c009231ef009431ef006831ef00908c80000b
:102f3c0000000600881f78000004eb0070918000f0
:102f4c00eafc0700c88a8800fcff37003600f8004e
:102f5c00809fbe00829fbe00849fbe00869fbe00e5
:102f6c00c028a900262cef004e2cef0010002000ea
:102f7c0070918800efff07004f03be004f02be00a8
:102f8c004f01be004f00be003600f90000400600a5
:102f9c003600f800809fbe00829fbe00849fbe005a
:102fac00869fbe00c068a900262cef004e2cef00b7
:102fbc004000200070918800deff07004f03be0028
:102fcc004f02be004f01be004f00be003600f9009c
:102fdc00004006003600f800809fbe00829fbe00b5
:102fec00849fbe00869fbe00c048a900262cef001f
:102ffc004e2cef008000200070918800cdff070060
:10300c004f03be004f02be004f01be004f00be007a
:10301c003600f90000400600801f7800c088a90027
:10302c00262cef004e2cef00000120007091880040
:10303c004f007800004006003600f800809fbe006c
:10304c00829fbe00849fbe00869fbe00c028a90040
:10305c00262cef004e2cef0000022000709188000f
:10306c00b4ff07004f03be004f02be004f01be006d
:10307c004f00be003600f900004006003600f80094
:10308c00809fbe00829fbe00849fbe00869fbe00b4
:10309c00c068a900262cef004e2cef000004200085
:1030ac0070918800a3ff07004f03be004f02be00c3
:1030bc004f01be004f00be003600f9000040060074
:1030cc003600f800809fbe00829fbe00849fbe0029
:1030dc00869fbe00c048a900262cef004e2cef00a6
:1030ec00700020007091880092ff07004f03be0013
:1030fc004f02be004f01be004f00be003600f9006b
:10310c00004006003600f800809fbe00829fbe0083
:10311c00849fbe00869fbe00c088a900262cef00ad
:10312c004e2cef00800020007091880081ff07007a
:10313c004f03be004f02be004f01be004f00be0049
:10314c003600f900004006005043200010128800a1
:10315c00000028000012880000000600a18f8000eb
:10316c00f98f500004003600f431ef00f831ef0015
:10317c004802f8000012f900a18f8000ea8f50007d
:10318c0071003600c18f8000e18f50000f003200bb
:10319c0005003900e28f500015003200e38f50001b
:1031ac0069003a001a003700c18a8000c808dd00a7
:1031bc0001c0a000010070004091880040128800fe
:1031cc0010002000c08f88005f0037004002ab0069
:1031dc005d0032004802f8000012f90020002000c7
:1031ec00c08f8800f411f800fa11f900560037006e
:1031fc00fa11ec00f411e30053003600300020000b
:10320c00c08f88002812f8004802f9004e003700e1
:10321c004002ab004c00320040128000109088003d
:10322c000012e30048003a000000e00046003200c3
:10323c00f431ef00cc00de0011908800f2ff20008a
:10324c0002006000009088006109b800e90f51008d
:10325c00e08f59003a003e000206010009003700d9
:10326c001c0037001d0037002200370023003700f8
:10327c0024003700250037002600370027003700d0
:10328c002e0037000412e30004003200410020003d
:10329c0061808800f082880020908800800078008f
:1032ac000128b20003003200110020006185880063
:1032bc0001003700ac30ef0000b8a300030032006f
:1032cc0010002000008d88001d003700a031ef0099
:1032dc001b003700708388001900370080007800cd
:1032ec00f103b200118388004800de0020858800bd
:1032fc00130037000083880011003700f084880029
:10330c000f003700808388000d0037006090880024
:10331c000b0037003090880009003700509088006f
:10332c000612f8000812f9004190800050908000bd
:10333c0000805000908b88000100370000858800c9
:0c334c00f431ef00f831ef000000060043
:020000040000fa
:103358002e120000020000008000000096110000fc
:103368002a000000800000001a1200000c00000073
:10337800820000008813200000320000e6001400dc
:1033880000010000581100003e000000800000000d
:103398002612000004000000820000000100000066
:1033a80010000000f411000014000000800000006c
:1033b800e01000007800000080000000c01100004c
:1033c8001a00000082000000d0070100000a000077
:1033d80070170500009600004000c8000020030098
:1033e80041001a00008c00000100000008120000d3
:1033f80012000000820000000a000a00000a000013
:103408000a000a00000100000a000100000800008c
:10341800da1100001a000000800000002a120000e3
:103428000400000082000000b80b0100000000004a
:1034380000100000e0000000800000000000000014
:020000040000fa
:0456000000000000a6
:020000040000fa
:04560400711b000016
:020000040000fa
:045620000000000086
:020000040000fa
:04af300079ff0000a5
:020000040000fa
:04af38007bff00009b
:020000040000fa
:04af40009fff00006f
:020000040000fa
:04af5000deff000020
:020000040000fa
:04af5800feff0000f8
:00000001FF
